:020000040800F2
:10000000D0070020BD010008E9260008E12600080D
:10001000E5260008A1050008E1270008000000000F
:10002000000000000000000000000000F1260008B1
:10003000A505000800000000ED260008F5260008D0
:10004000D7010008D7010008D7010008D701000830
:10005000D7010008D7010008D7010008D701000820
:10006000D7010008D7010008D7010008D701000810
:10007000D7010008D7010008D7010008D701000800
:10008000D7010008D7010008D7010008D7010008F0
:10009000D7010008D7010008D7010008D7010008E0
:1000A000D7010008FD260008D7010008D701000885
:1000B000D7010008D701000800000000D7010008A0
:1000C000D70100080000000000000000D701000870
:1000D00000000000D5270008D7010008000000003C
:1000E000D7010008D7010008D701000800F002F886
:1000F00000F055F814A696E8000CB244B344DA4573
:1001000001D100F04CF8BAE80F000FA696E83000D5
:10011000A5EB040504EB0607AAEB0704A7F101070A
:100120004FEA15154FEA3414A4F10104AC4201D38F
:1001300000F035F813F0010F18BFFB1A43F001036C
:1001400000F001F8DBE71847943A0000B43A0000E9
:10015000103A24BF78C878C1FAD8520724BF30C8F3
:1001600030C144BF04680C60704700007047000055
:100170000023002400250026103A28BF78C1FBD8B0
:10018000520728BF30C148BF0B607047642900F098
:100190007D80002070471FB51FBD10B510BD00F059
:1001A00052F91146FFF7F7FF02F076FD00F070F903
:1001B00003B4FFF7F2FF03BC00F078F90948804769
:1001C00009480047FEE7FEE7FEE7FEE7FEE7FEE739
:1001D000FEE7FEE7FEE7FEE704480549054A064B51
:1001E00070470000F9260008ED000008D00100204B
:1001F000D0070020D0030020D00300200FB41CB58E
:10020000074B06AA7B4469460090059800F003F965
:100210000020694600F012F91CBC5DF814FB0000D8
:10022000350200002DE9F0410E4604460020206210
:100230002046E168884730B3252805D0D4E901215C
:100240009047206A401CF2E7E16820460027884773
:10025000050018D0A5F14100192802D820354FF427
:1002600000673246294620462760FFF78FFF40B1DE
:10027000012804D0F61D26F007060836D8E7361DFB
:10028000D6E72846DAE7206ABDE8F0812DE9F0419B
:100290000646002410687529314616A510D0AFF324
:1002A0000080002802DA404213A507E031688A077F
:1002B00001D512A502E0490704D511A5012401E0EA
:1002C000AFF3008000210A2206F1240709E0B0FB09
:1002D000F2FCB0FBF2F302FB1C00303078541846FD
:1002E000491C0028F3D123462A463046BDE8F04198
:1002F00000F032B8000000002D0000002B000000CC
:10030000200000004FF0000200B5134694469646C8
:10031000203922BFA0E80C50A0E80C50B1F1200118
:10032000BFF4F7AF090728BFA0E80C5048BF0CC0C6
:100330005DF804EB890028BF40F8042B08BF704724
:1003400048BF20F8022B11F0804F18BF00F8012B96
:1003500070477047704770472DE9F0470D46994642
:100360009246044600F124080168880604D5E06935
:1003700021F01001216000E00120A84201DD471BAF
:1003800000E00027A1697A1902EB0900081AA061B0
:100390002078C00602D42046AFF30080002608E093
:1003A000D4E901211AF806009047206A401C761C07
:1003B00020624E45F4DB2078C0060AD52046AFF314
:1003C000008006E0D4E9012130209047206A401CDB
:1003D0002062381EA7F10107F4DC07E0D4E901210F
:1003E00018F805009047206A401C2062281EA5F1DD
:1003F0000105F3DC2046AFF300802078000602D52B
:100400000220BDE8F0870120FBE7000001694A1CDB
:1004100002610878704700B58FB0CDE90131002145
:10042000059105497944CDE9031011466846FFF767
:10043000F9FE0FB000BD0000E5FFFFFF0A6802F8FB
:10044000010B0A607047754600F02CF8AE460500B7
:100450006946534620F00700854618B020B5FFF7DF
:10046000BBFEBDE820404FF000064FF000074FF004
:1004700000084FF0000BAC46ACE8C009ACE8C0097E
:10048000ACE8C009ACE8C00921F007018D4670470F
:1004900010B50446AFF300802046BDE81040FFF7DA
:1004A00087BE000000487047100000200149182056
:1004B000ABBEFEE72600020070470000B0B5044660
:1004C00000688168C90709D0816821F00101816055
:1004D00000F082FD21688968C90701D10020B0BD04
:1004E000054603E020688068C007F7D000F074FD7F
:1004F000401B0328F6D320688068C007F2D0A06AAA
:1005000040F01000A062E06A40F00100E0620120CB
:10051000B0BD0000B0B582B0044600200190216853
:100520008A68D2073AD1886840F00100886040F2BA
:100530000000C2F2000000684DF68361C4F21B3176
:10054000A0FB0101880C00BF0190019810B1019837
:100550000138F9E700F040FD21688968C9071CD11E
:10056000054603E020688068C00716D100F034FD1E
:10057000401B0328F6D320688068C007F2D1A06A28
:1005800040F01000A062E06A40F00100E06200204C
:1005900084F82400012002B0B0BD002002B0B0BD3C
:1005A000FEE700007047000070B582B004460020EE
:1005B000019094F82400012801D1022566E0012071
:1005C00084F824002046FFF779FF2046FFF7A2FFBA
:1005D0000546002857D1A06A41F202118843023033
:1005E000A06240F20000C2F200000668022000F0A3
:1005F000B1FDB6FBF0F040000190019810B10198F8
:100600000138F9E72068816841F00801816000F055
:10061000E3FC21688A6812070DD4886840F0040062
:10062000886000F0D9FC21688968490714D401204A
:100630006FF0030123E0064604E000BF21688868EC
:100640000007EAD500F0C8FC801B0B28F6D3206811
:1006500080680007F2D50EE0064603E02068806857
:100660004007E4D500F0B8FC801B0B28F6D32068C7
:1006700080684007F2D5012510206FF01201A26AB0
:1006800011400843A062002084F82400284602B0EC
:1006900070BD0000B0B581B00022009290F8242017
:1006A000012A01D1022179E04A680123062A02EBDE
:1006B000820C80F8243005D8026802F1340E6FF005
:1006C00004020AE003680C2A87BF03F12C0E6FF0C6
:1006D000400203F1300E6FF022026244DEF800C0E7
:1006E0001F230C6893402CEA030304FA02F21A4316
:1006F000CEF80020D1F800E002680EEB4E04102383
:10070000BEF1090F88BF1E3C88BF0C2352F803C0FE
:1007100007258968A5402CEA0505A1402943D15049
:100720002EF001014FF0000C10294FF0000133D1E1
:10073000016842F20042C4F20102914205D0816A8E
:1007400041F020018162012126E09268120222D448
:100750008A68BEF1100F42F400028A601BD140F299
:100760000001C2F2000109684DF68362C4F21B3237
:10077000A1FB0212910C01EB81014900009100994B
:1007800049B100BF009901390091009900294FF04B
:100790000001F7D100E0002180F824C0084601B034
:1007A000B0BD00000068C06C70470000002804BFA6
:1007B00001207047B0B50446806A30B90020E0627D
:1007C00084F82400204600F0A1F820688168C90759
:1007D00009D0816821F00101816000F0FDFB2168F2
:1007E0008968C90730D100200121A36AA26A31B308
:1007F00013F0100123D141F2021122EA010102316A
:10080000A162E169D4E9013241EA030C531EB3FA53
:1008100083F35D091346B2F5807F18BF2B02217D5B
:10082000257B01294CEA450E31D13DB3A56A45F03F
:100830002005A562E56A45F00105E56227E042F082
:100840001000A0620120B0BD054603E0206880686A
:10085000C007C8D000F0C0FB401B0328F6D32068B7
:100860008068C007F2D0A06A002140F01000A062AA
:10087000E06A40F00100E0620120B6E7D4F818C059
:100880004EF60005CFF6FF7505EB4C352B4325687A
:10089000B2F5807F696821F4694141EA030169602A
:1008A000A9684FF2FD73CFF6E17301EA030141EA53
:1008B0000E01A96001D0012A06D121690022CFF6DC
:1008C000F07202EB015200E00022E96A21F47001AB
:1008D0001143E962A96840F6FE62CFF61F7211402B
:1008E000714507D10021E162A16A012262F3010191
:1008F000A162B0BDA06A40F0100020F00200A0622A
:10090000E06A40F00100E0620120B0BD80B586B031
:10091000006842F60001C4F2010188424FF0000174
:10092000CDE90411CDE9021121D042F20041C4F217
:10093000010188423ED141F21800C4F20200016870
:1009400041F400710160016801F4007101910199A5
:10095000016841F0040101600068012100F0040019
:100960000190019840F60000C4F201001CE041F241
:100970001800C4F20200016841F48061016001685E
:1009800001F4806101910199016841F00801016061
:100990000068022100F008000190019840F6000074
:1009A000C4F2010000F5806002910321039102A9C5
:1009B00000F00CFA06B080BD2DE9F04182B00026AF
:1009C0000D460446019600F007FB21688A68D205AF
:1009D0003CD480464868C00503D4C86A10F4700F40
:1009E0003ED040F20000C2F200000668022000F093
:1009F000B1FB216844F624130A69B6FBF0F0C2F299
:100A000092431A4206D1CA6844F62413C0F29203F4
:100A10001A423ED00A6942F29243C1F249231A4275
:100A200006D1CA6842F29243C0F249031A4242D048
:100A30000A6949F24923C0F224031A424FF0FC022A
:100A40003AD1C968194208BF542235E0A06A40F083
:100A50002000A06284F82460012002B0BDE8F0818B
:100A600020680068800743D46E1C07E02068006897
:100A700080075CD520680068800739D4002EF9D043
:100A8000002DF3D000F0A8FAA0EB0800A842EDD8A2
:100A9000F0E70A6942F29243C1F249231A424FF049
:100AA000290209D1C96842F29243C0F249031942AE
:100AB00008BF142200E05422019902FB00F7B9425A
:100AC00016D26E1C09E000BF0198B8422FD30198DE
:100AD000013001900198B8420AD2002EF7D0002DC3
:100AE000F2D000F079FAA0EB0800A842ECD8EEE7CB
:100AF00020686FF012010160A16A41F40071A162E7
:100B0000806800F46020B0F5602F0CD1207B50B9D4
:100B1000A06A20F48070A062A06AC00403D4A06A16
:100B200040F00100A062002002B0BDE8F081A06AA0
:100B300040F00400A062002084F82400032002B0EA
:100B4000BDE8F081B0B5044690F82400012804BF48
:100B50000220B0BD012084F824002046FFF7DAFC13
:100B600018B1002184F82410B0BD42F2044C216871
:100B7000A26AC4F2010C40F201339A430CF57F756E
:100B800002F58072A942A26207D0A26A22F4801202
:100B9000A2624A6852051AD41EE0DCF8002012F462
:100BA000702FF2D0A26A42F4801E42F60002C4F214
:100BB00001029142C4F828E005D042F20042C4F29A
:100BC0000102914208D1DCF80020520504D5A26A46
:100BD000012363F30D32A262A26A4FF0000ED20429
:100BE0004FF0000244BFE26A22F00602E2626FF0B8
:100BF000020284F824E00A608A6802F46022B2F5F6
:100C0000602F0BD1A94204D08A6842F4A0028A6006
:100C1000B0BDDCF8002012F4702FF5D08A6842F4E1
:100C200080128A60B0BD0000B0B5044690F8240080
:100C3000012804BF0220B0BD0121206884F82410DF
:100C40008268D20702D1002069B912E0816821F0E0
:100C50000101816000F0C0F921688968C9070CD1E1
:100C60000020012129B1A16A41F201129143013111
:100C7000A162002184F82410B0BD054604E000BF45
:100C800020688068C007EBD000F0A6F9401B03285D
:100C9000F6D320688068C007F2D0A06A002140F037
:100CA0001000A062E06A40F00100E062012000292B
:100CB000D9D1DEE7014690F82100022813D1086857
:100CC000D1E90FC3026822F00E020260026822F02E
:100CD00001020260012000FA03F2CCF8042081F83E
:100CE0002100002002E0042088630120002281F816
:100CF0002020704790F82110022923D10268116842
:100D000021F00E0111602F211368C4F202018A4202
:100D100040F20401C4F2020123F00103136015DD67
:100D20003023C4F202039A421CD04423C4F20203CB
:100D30009A421AD05823C4F202039A421AD14FF4AD
:100D400080331FE004218163012070470823C4F22F
:100D500002039A420CD01C23C4F202039A4209D126
:100D600010230FE04FF480730CE04FF4805309E040
:100D7000012307E001F1680C4FF08073624508BF62
:100D80004FF480130B60012180F82110426B002189
:100D900080F8201022B180B590470021BDE8804046
:100DA00008467047B0B5044600F016F9054640F213
:100DB0000400C2F200000078611C18BF044400BFA8
:100DC00000F00AF9401BA042FAD3B0BD2DE9F04F64
:100DD00082B00E68002E00F0EF8041F20002C4F2F3
:100DE0000102032340F2004E904208BF02234FF657
:100DF000FF7CC4F2010E009300240123C1F2100C09
:100E00004FF0000B4FF000094BE000BF40F60042EE
:100E1000C4F20102009F904208BF012704F00C03B6
:100E20000F229A402AEA020207FA03F34FEA9B05CF
:100E30001A4346F825204E6840F20C45F202DEF8CF
:100E4000082054BF22EA080242EA0802C4F201055F
:100E5000CEF808202A68B30254BF22EA080242EA08
:100E600008022A60B303DEF8042054BF22EA080215
:100E700042EA0802F303CEF80420DEF800204FF027
:100E8000010354BF22EA080242EA0802CEF8002019
:100E90000E680BF1010B36FA0BF204F1040400F0BA
:100EA0008B8003FA0BFA16EA0A08F1D04E68664501
:100EB00010DC122E50D8DFE806F0330A41454F4FC0
:100EC0004F4F4F4F4F4F4F4F4F4F4F484C00D1F860
:100ED0000C9041E04FF6FF72C1F2210296420FDC06
:100EE0000022C1F2110296421AD00022C1F212026F
:100EF000964215D00022C1F22102964210D02BE07A
:100F00000022C1F2220296420AD00022C1F231022E
:100F1000964205D00022C1F2320296421CD100BF97
:100F20008A6842B1012A14BFC0F814A0C0F810A00A
:100F30004FF0080910E04FF004090DE0CA6802F113
:100F4000080909E04FF0000906E0CA6802F1040947
:100F500002E0CA6802F10C0922460646B8F5807F15
:100F600024BF203A043637680F25954027EA050547
:100F700009FA02F22A433260CA79D2067FF588AFB5
:100F800041F21803C4F202031A68AEF57E7642F00D
:100F900001021A601A6802F001020192019A2BF014
:100FA000030256F802A040F60002C4F20102904289
:100FB0007FF42CAF002731E702B0BDE8F08F0000CE
:100FC0008068084018BF012070470000002A08BF51
:100FD000090401617047000040F2C810C2F200002D
:100FE0000068704740F2040040F2C811C2F20000ED
:100FF000C2F2000100780A681044086070470000DF
:1010000080B542F20000C4F20200016841F0100114
:101010000160032000F08EF80F2000F005F800F0CA
:101020002BF8002080BD0000B0B540F20402C2F2EF
:10103000000240F200011278C2F200014FF47A730C
:101040000968B3FBF2F20446B1FBF2F1084600F086
:1010500025FC0F2C4FF001050CD858B94FF0FF308C
:1010600021460022002500F039F840F20800C2F2C3
:10107000000004602846B0BD82B041F21800C4F2FE
:1010800002000168042241F001010160016801F0E1
:10109000010101910199416841F08051416040682E
:1010A00000F08050009000980420C4F20100016814
:1010B00062F31A61016002B070470000002848BF67
:1010C000704700F01F01012202FA01F14EF20012F6
:1010D0004009CEF2000242F82010704710B54EF6DB
:1010E0000C5CCEF2000CDCF80030C3F3022E8EF064
:1010F0000704042C28BF0424BEF103034FF0FF3E75
:101100000EFA04F438BF0023A14399400EFA03F30A
:101110009A43114300F1604200F00F03090102F508
:101120006442043B6344002848BF03F10C02117081
:1011300010BD00004EF60C51CEF200010A684FF6C9
:10114000FF031A4060F30A2242F0806040F0FD7015
:101150000860704701280ED0022837D0102808D127
:1011600041F20401C4F202010A6851F8040CC00102
:101170003ED40020704741F20400C4F20200C1696D
:1011800040F202320A40B2F5817F04BF4FF40040C2
:10119000704701F44071B1F5407F0FD0B1F5007F89
:1011A0001CBF00207047026A920744BF49F64040C6
:1011B0007047B1F5407F1CBF0020704750F8040C09
:1011C0004FF22441800301EAE070704780B500F0DF
:1011D000B1F941F20401C4F2020109680222C1F32B
:1011E000813102EB4101B0FBF1F0BDE88040704776
:1011F000C2F3834011A3185CD20305D440F6001259
:10120000C0F23D0250430BE00A6810A3C2F3404213
:101210009A5C41F20023C0F27A03B3FBF2F250432E
:101220000968490248BF70474AF6AB214000CAF638
:10123000AA21A0FB01014808704700BF0203040572
:10124000060708090A0B0C0D0E0F10100102000012
:101250002DE9F04182B00446007841F21C06C00737
:10126000C4F202064AD030685FEAC00808D4306889
:1012700040F080503060306800F08050019001985C
:1012800047F20007C4F200073868C00512D4386876
:1012900040F480703860FFF79FFE05463868C0054F
:1012A00008D4FFF799FE401B6428F7D9032002B049
:1012B000BDE8F081706810F4407012D0616801F4EC
:1012C000407188420DD0706840F24042C4F2422220
:1012D000012320F4407113600023C0071360716084
:1012E00025D17068616820F440700843B8F1000FA0
:1012F000706003D4306820F080503060206881072F
:1013000007D556F8181CA26821F44041114346F84D
:10131000181CC00607D556F8180CE16820F48000A8
:10132000084346F8180C002002B0BDE8F081FFF732
:1013300053FE054641F2883770688007D1D4FFF725
:101340004BFE401BB8424FF00300F5D9ECE700001C
:10135000002804BF012070472DE9F04381B042F21C
:101360000008C4F202080446D8F800000D4600F058
:10137000070088420CD2D8F8000020F0070028436C
:10138000C8F80000D8F8000000F00700A8426BD1B0
:10139000206841F204098107C4F2020917D5410708
:1013A00005D5D9F8001041F4E061C9F80010010733
:1013B00005D5D9F8001041F46051C9F80010D9F8EA
:1013C0000010A26821F0F0011143C9F80010C00715
:1013D00041D1D8F8000000F00700A8420CD9D8F895
:1013E000000020F007002843C8F80000D8F80000EB
:1013F00000F00700A84237D12068410707D5D9F887
:101400000010E26821F4E0611143C9F80010000700
:1014100008D5D9F80000216920F4605040EAC100E5
:10142000C9F80000D9F8002002F00C00082841F2A9
:101430000020C0F27A004DD143F6C033C2F383419D
:10144000C0F60003595CD20338D440F60010C0F255
:101450003D0048433EE06068022809D0012828D1B9
:1014600059F8041C890307D4012001B0BDE8F083BA
:1014700059F8041C8901F7D5D9F8001021F00301AF
:101480000843C9F80000FFF7A7FD064641F2883778
:10149000D9F80000616800F00C00B0EB810F98D023
:1014A000FFF79AFD801BB842F2D9032001B0BDE8D6
:1014B000F08359F8041C8907D6D5DDE7D9F8002058
:1014C00043F6BE33C2F34042C0F600039A5C484381
:1014D000B0FBF2F0D9F8001043F6A632C1F30311C5
:1014E000C0F60002515C40F2000220FA01F140F225
:1014F0000800C2F200000068C2F200021160FFF7AB
:1015000093FD002001B0BDE8F083000040F2000030
:1015100041F20401C2F20000C4F20201006809684D
:1015200043F6B632C1F30221C0F60002515CC84056
:101530007047000040F2000041F20401C2F20000D6
:10154000C4F202010068096843F6B632C1F3C22151
:10155000C0F60002515CC84070470000002804BF7C
:10156000012070472DE9F04182B00446007841F235
:101570000006C007C4F2020649D0706800F00C00F3
:10158000042809D13068800341D5606800283ED125
:10159000012002B0BDE8F081706800F00C0008285E
:1015A00002D17068C003EDD465682DB1B5F5A02FE8
:1015B0000AD0B5F5803F0BD0306820F48030306021
:1015C000306820F4802006E0306840F480203060ED
:1015D000306840F480303060FFF7FEFC002D054697
:1015E00012D000BF3068800311D4FFF7F5FC401B18
:1015F0006428F7D918E100BFFFF7EEFC401B642810
:101600004FF0030000F2D88030688003F4D42078D3
:10161000800719D5706810F00C0F07D0706800F0C3
:101620000C00082827D17068C00324D430688007D4
:1016300003D52069012840F0A6803068616920F058
:10164000F80040EAC1003060207800074ED5A0695C
:1016500038B30020C4F242200121C0F88014FFF703
:10166000BBFC0546706A80072DD4FFF7B5FC401B14
:101670000228F7D9D8E02069002840F20000C4F21F
:10168000422000F0A88001210160FFF7A5FC05467B
:1016900030688007D1D4FFF79FFC401B0228F7D9A0
:1016A000C2E00020C4F242200021C0F88014FFF7FD
:1016B00093FC0546706A800718D5FFF78DFC401B28
:1016C0000228F7D9B0E040F20000C2F20000006842
:1016D00044F6D351C1F26201A0FB0101480A019016
:1016E00000BF0198411E00280191F9D120784007E0
:1016F00017D4E5698DB1706800F00C00082846D158
:10170000012D40D07068216A00F480328A423AD1BB
:10171000616A00F47010884235D1002002B0BDE843
:10172000F081F0695FEAC00808D4F06940F08050A9
:10173000F061F06900F080500090009847F20007D7
:10174000C4F200073868C0050FD4386840F48070D0
:101750003860FFF741FC05463868C00505D4FFF73F
:101760003BFC401B6428F7D95EE0E5681DB1052D00
:1017700042D0012D44D0306A20F001003062306A3E
:1017800020F004003FE0012002B0BDE8F081002716
:10179000C4F2422700203866FFF71EFC022D0546E2
:1017A0000ED100BF3068800155D5FFF715FC401BF6
:1017B00002284FF00300F5D902B0BDE8F08100BF68
:1017C00030688001A9D5FFF707FC401B02284FF0C5
:1017D0000300F5D9F0E700210160FFF7FDFB0546A6
:1017E000306880077FF530AFFFF7F6FB401B02281B
:1017F0004FF00300F4D9DFE7306A40F004003062B4
:10180000306A40F001003062FFF7E6FB002D05462C
:1018100041F2883713D000BF306A800712D4FFF737
:10182000DBFB401BB842F7D9032002B0BDE8F081D2
:10183000FFF7D2FB401BB8424FF00300BCD8306A20
:101840008007F5D4B8F1000F3FF553AFF06920F0F1
:101850008050F0614DE7206AB0F5803F05D1716896
:10186000A26821F40031114371607168626A21F449
:10187000741111430843706001203866FFF7ACFB18
:10188000044600BF306880013FF547AFFFF7A4FB77
:10189000001B02284FF00300F4D98DE7411E002001
:1018A000B0EB116F1CBF012070474EF21002CEF258
:1018B000000251604EF62351CEF20001F0230B706E
:1018C000072190601160704770470000704700006A
:1018D00090F83C20012A4FF002022BD010B50123D2
:1018E00080F83C3080F83D200268D2F804E0D2F85D
:1018F00008C00C682EF070032343B2F1804F536090
:101900000BD042F60043C4F201039A4205D040F2E4
:101910000043C4F200039A4204D149682CF08003CA
:10192000194391600121002280F83D1080F83C208D
:10193000BDE8104010467047002804BF01207047E2
:1019400010B5044690F83D0028B9002084F83C000A
:10195000204600F051F8022084F83D00206842F64D
:10196000004C0268B0F1804FC4F2010C18BF604512
:1019700004D1A36822F070021A4305E040F200434C
:10198000C4F200039842F4D0B0F1804F18BF604514
:1019900004D1236922F440721A4305E040F2004367
:1019A000C4F200039842F4D0A16922F08002D4F876
:1019B00004E0E368114360450160C362C0F828E0B9
:1019C00002D16169CCF8301001214161002084F816
:1019D000461084F83E1084F83F1084F8401084F8D4
:1019E000411084F8421084F8431084F8441084F8BD
:1019F000451084F83D1010BD006842F60041C4F265
:101A00000101884218BF704780B582B041F21800CA
:101A1000C4F202000168002241F400610160006824
:101A2000002100F40060019001981920FFF756FB97
:101A3000192002B0BDE88040FFF740BB90F83D1090
:101A400001291CBF01207047022180F83D10006869
:101A5000B0F1804F0BD042F60041C4F20101884240
:101A600005D040F20041C4F20001884206D18168ED
:101A700001F00701062904BF00207047016841F00A
:101A8000010101600020704790F83C20012A4FF0CE
:101A9000020200F0C68080B5012380F83C3080F857
:101AA0003D20D0F800C04FF67772DCF8083023EA0A
:101AB0000202CCF808200B684F2B28DC1F2B44DDDA
:101AC000202B45D0302B43D0402B40F0AC80D1F8B8
:101AD00004E0C968DCF82030DCF8202022F00102A4
:101AE000CCF82020DCF8182022F0F00242EA0111A4
:101AF00023F00A0242EA0E02CCF81810CCF820209B
:101B0000DCF8081041F0470121F030017EE06F2B36
:101B100026DDB3F5005F47D0B3F5805F78D0702B3A
:101B200040F08180D1E901E3C968DCF8082043EA8C
:101B30000E0322F47F4243EA01211143CCF808103E
:101B4000DCF8081041F0770160E00BB1102B6AD18E
:101B5000DCF8081021F07001194341F0070155E04D
:101B6000502B34D0602B5ED1D1F804E0C968DCF88A
:101B70002030DCF8202022F01002CCF82020DCF805
:101B8000182022F4704242EA013123F0A00242EA16
:101B90000E12CCF81810CCF82020DCF8081041F018
:101BA000670121F0100131E0D1E901E3C968DCF8F7
:101BB000082043EA0E0322F47F4243EA0121114345
:101BC000CCF80810DCF8081041F480411EE0D1F890
:101BD00004E0C968DCF82030DCF8202022F00102A3
:101BE000CCF82020DCF8182022F0F00242EA0111A3
:101BF00023F00A0242EA0E02CCF81810CCF820209A
:101C0000DCF8081041F0570121F02001CCF8081051
:101C10000022012180F83D10002180F83C10BDE831
:101C20008040104670470122F3E700007047000033
:101C300010B5044600680169890744BFC1685FEABE
:101C400081713FD420680169490744BFC1685FEAD8
:101C5000417143D420680169090744BFC1685FEA44
:101C6000017148D420680169C90644BFC1685FEAB0
:101C7000C1614CD420680169C9071CBFC1685FEA13
:101C8000C17151D120680169090644BFC1685FEA8A
:101C9000016150D420680169490644BFC1685FEA08
:101CA00041614FD421680869800646BFC8685FEA71
:101CB000806010BD6FF0200220460A61BDE8104030
:101CC000FFF704BE6FF002010161012121778069F5
:101CD00080073ED02046FFF7A9FF40E06FF00401E7
:101CE000016102212177806910F4407F3AD02046BB
:101CF000FFF79CFF3CE06FF00801016104212177B0
:101D0000C069800737D02046FFF790FF39E06FF0B9
:101D10001001016108212177C06910F4407F33D0A0
:101D20002046FFF783FF35E06FF001010161204697
:101D300000F0D8F9A6E76FF0800101612046FFF7B7
:101D4000C3FDA7E76FF040010161204600F0CCF928
:101D5000A8E7204600F04CF8204600F0C1F900202A
:101D600020776FE7204600F043F8204600F0B8F9EE
:101D7000002020776EE7204600F03AF8204600F079
:101D8000AFF9002020776DE7204600F031F82046BB
:101D900000F0A6F9002020776CE7000080B586B03F
:101DA0000068B0F1804F4FF00000CDE90400CDE9AC
:101DB000020001D006B080BD41F21800C4F202005A
:101DC000016841F004010160006802A900F004000C
:101DD000019001980820029002200390059040F69F
:101DE0000000C4F20100FEF7F1FF06B080BD000064
:101DF0007047000090F83C30012B04BF0220704770
:101E00004FEAB2020123032A80F83C3000F2EC8052
:101E10002DE9F041DFE802F0023B77B2036842F6B9
:101E200000451C6A1A6AC4F2010522F001021A6216
:101E30001A46D3F804C052F818EF8E6824F0020452
:101E4000AB4244EA060405D1CE6824F00C0426F027
:101E5000040634430E68AB4206D1D1E905582CF490
:101E600040772F4347EA080C2EF073073743C3F837
:101E700004C09F614F6809695F631C629F6947F0F6
:101E800008079F619F6927F004079F61A6E0036828
:101E900042F600451C6A1A6AC4F2010522F01002DB
:101EA0001A621A46D3F804C052F818EF8E6824F06C
:101EB0002004AB4244EA061407D1CE686FF0400715
:101EC00024F0C00407EA061634430E68AB4206D17C
:101ED000D1E905572CF4406C3D434CEA850C2EF4B7
:101EE000E64747EA0627C3F804C09F614F680969BF
:101EF0009F631C629F6947F400679F619F6927F495
:101F000080679F6169E0036842F600451C6A1A6AAF
:101F1000C4F2010522F480721A621A46D3F804C092
:101F200052F81CEF8E6824F40074AB4244EA062495
:101F300007D1CE6840F2FF47360224F44064BE4326
:101F400034430E68AB4206D1D1E905572CF4405C0E
:101F50003D434CEA051C2EF073073743C3F804C019
:101F6000DF614F680969DF631C62DF6947F00807BA
:101F7000DF61DF6927F00407DF612FE0036842F6C5
:101F80000047D3F820C01A6AC4F2010722F4805235
:101F90001A621A465C6852F81C5FD1F800E08E683D
:101FA000BB4204D14F6924F4804444EA87142CF4E2
:101FB000005747EA063725F4E64646EA0E265C60F7
:101FC000DE614E6809691E641F62DF6947F40067BD
:101FD000DF61DF6927F48067DF6109021368194355
:101FE00000231160BDE8F041002180F83C10184644
:101FF00070470000002804BF0120704710B5044658
:1020000090F83D0028B9002084F83C00204600F0FC
:1020100051F8022084F83D00206842F6004C026826
:10202000B0F1804FC4F2010C18BF604504D1A36821
:1020300022F070021A4305E040F20043C4F20003AC
:102040009842F4D0B0F1804F18BF604504D12369A5
:1020500022F440721A4305E040F20043C4F2000348
:102060009842F4D0A16922F08002D4F804E0E36839
:10207000114360450160C362C0F828E002D1616984
:10208000CCF8301001214161002084F8461084F81A
:102090003E1084F83F1084F8401084F8411084F812
:1020A000421084F8431084F8441084F8451084F8F2
:1020B0003D1010BD0068B0F1804F18BF704781B06F
:1020C00041F21C00C4F20200016841F0010101600C
:1020D000006800F001000090009801B07047000017
:1020E0007047000070470000704700007047000014
:1020F00070470000B0B582B0044600680168C3684C
:10210000426901F02F05202D03F0200506D12DB1E5
:10211000204602B0BDE8B04000F0FCBA5FEA017CA6
:102120001EBF02F0010E03F4907212EB0E0240D1BA
:10213000226BCD0618D5012A16D113F0100213D048
:102140000021019101680191416801910199406963
:10215000400636D4A08DE18DE28D002A18BF88425A
:1021600040F00C8102B0B0BD0A0670D513F08002B9
:102170006DD094F841102129F4D1A168B1F5805FA8
:1021800003D12169002900F02E81216A4A1C2262B4
:1021900009784160E18C01390A04E184E2D1C16827
:1021A00021F08001C160C16841F04001C16002B00E
:1021B000B0BDC80718BF13F480705CD1480760D465
:1021C00066E0E06B016849688AB2002ACAD0A38D34
:1021D0009A42C7D2E1858069202830D0206850E833
:1021E000030F216820F4807041E80302002AF5D132
:1021F000206850E8050F216820F0010041E8050241
:10220000002AF5D1206850E8050F216820F0400031
:1022100041E80502002AF5D1202084F84200002080
:10222000206300BF206850E8030F216820F01000F1
:1022300041E80302002AF5D1E06BFEF73BFD0220E6
:102240006063A08DE18D401A81B22046C0E049064E
:102250007FF588AF13F040013FF484AFC16821F0EF
:102260004001C1602021204684F8411002B0BDE841
:10227000B04000F033BA606C40F001006064480781
:1022800006D5BEF1000F03D0606C40F00200606420
:10229000880706D5BEF1000F03D0606C40F0040043
:1022A0006064BCF1000F06D55EEA050003D0606CE7
:1022B00040F008006064606C00283FF453AF88066B
:1022C00003D515B1204600F025FA20684069616CFD
:1022D00000F0400001F00801401848D0206850E8A4
:1022E000030F216820F4907041E80302002AF5D121
:1022F000206850E8050F216820F0010041E8050240
:10230000002AF5D1206B01280AD100BF206850E8CF
:10231000030F216820F0100041E80302002AF5D1E4
:10232000202084F842000020206320684069400695
:1023300053D500BF206850E8050F216820F0400009
:1023400041E80502002AF5D1E06B002845D042F2B1
:102350000971C0F600014163FEF7CCFC00283FF490
:1023600001AFE06B416B02B0BDE8B04008472046CA
:10237000FFF7BEFE0020606402B0B0BD401A00BF8F
:10238000216851E8031F226821F4907142E8031389
:10239000002BF5D1216851E8051F226821F00101C9
:1023A00042E80513002BF5D1202184F842100021CA
:1023B000216300BF216851E8031F226821F010014A
:1023C00042E80313002BF5D1022281B2204662635A
:1023D00002B0BDE8B040FFF789BE204602B0BDE8BC
:1023E000B040FFF785BE216A31F8022B6FF35F2200
:1023F00042602162CEE60000002804BF0120704741
:1024000010B5044690F8410028B9002084F8400037
:10241000204600F061F8242084F841002068D4E9C7
:102420000212C36823F40053C360036923F44053CA
:102430001A430261D4E904231143C268194341F2EB
:102440000C639A431143C1604169A26921F4407150
:10245000114343F60002C4F201029042416102D0EE
:10246000FFF754F801E0FFF765F8D4E900231921DC
:1024700048439900B0FBF1F048F21F5CC5F2EB1C39
:10248000A0FB0C314FF69C734909C0F6FF7301FBAA
:102490000300322303EB0010A0FB0C03F02000EA42
:1024A000531000EB0110C3F343110844906010690E
:1024B000202120F490401061506920F02A005061E2
:1024C000D06840F40050D0600020606484F841106F
:1024D00084F84210606310BD70B586B040F60044C9
:1024E000C4F20104006804F53051002688420596C4
:1024F000CDE90366029601D006B070BD41F2180026
:10250000C4F20200016802AD41F48041016001683B
:1025100001F4804101910199016841F008010160D5
:102520000068294600F008000190019840200290C0
:1025300002200390032005902046FEF747FC8020F0
:10254000CDE90206204629460496FEF73FFC04200A
:10255000C4F201000168002241F0E06141F0040191
:10256000016025200021FEF7B9FD2520FEF7A6FD1C
:1025700006B070BD704700002DE9F04381B00446FD
:1025800090F8410020281DD10D4600294FF0010090
:1025900000F0A1801646002A00F09D8000206064B3
:1025A0002120984684F84100FEF716FDA684E684B3
:1025B000A1688146B1F5805F01D1206930B12F4615
:1025C000002504E0022001B0BDE8F0830027E08C84
:1025D000002842D008F101060AE000BF97B117F8C1
:1025E000010B21684860E08C0138E084E08CA0B3E6
:1025F000206800680006F1D4BEB1B8F1000F0ED11A
:1026000016E000BF35F8020B21686FF35F204860C9
:102610000027E8E701680906E0D4002EFAD0FEF7AB
:10262000DBFCA0EB0900404502D82068F2E700BFC0
:10263000206850E8030F216820F4D07041E80302BD
:10264000002AF5D1206850E8050F216820F001002C
:1026500041E80502002AF5D10AE02068006840063A
:1026600035D4B8F1000F1DD018F101050CD012E0DF
:10267000202084F8410084F84200002084F84000C3
:10268000032001B0BDE8F083206800BF016849065F
:102690001DD4002DFAD0FEF79FFCA0EB09004045A9
:1026A000F2D900BF206850E8030F216820F4D070F1
:1026B00041E80302002AF5D1206850E8050F21689F
:1026C00020F0010041E80502002AF5D1D0E72020E2
:1026D00084F84100002001B0BDE8F083704700009D
:1026E000FEE70000FEE70000FEE700007047000084
:1026F00070470000FEF776BC7047000040F2DC0037
:10270000C2F20000FFF794BA406A0021C185C1847B
:10271000FFF7EEBC90F84210222918BF704782687C
:10272000B2F5805F01D1016991B1816AB2F5805F34
:1027300007D00AB9026922B10268526802F07F022A
:1027400001E0026852680A70816A0131816207E023
:102750000168826A49686FF35F2122F8021B826276
:10276000C18D01390A04C18500D070470168CA686B
:1027700022F02002CA60CA6822F48072CA604A69E4
:1027800022F001024A61202180F8421000214163B9
:10279000026B012A18BFFFF7EDBE81B0016300BFD5
:1027A000016851E8031F026821F0100142E8031399
:1027B000002BF5D101680A68D20606D500220092E6
:1027C0000A680092496800910099818D01B0FFF775
:1027D0008DBC000040F26C10C2F20000FFF78ABC12
:1027E000FEE7000070B540F61401C4F2010151F893
:1027F000082C4FF0020C42F0040241F8082C4FF074
:10280000100E202240238024C1F800C0C1F800E04F
:102810000A600B600C6051F8085C46B245F0020596
:1028200041F8085CC5064FF0100558BF4FF48015FD
:1028300041F8045C85064FF0200558BF4FF40015A1
:1028400041F8045C45064FF0400558BF4FF4800541
:1028500041F8045C8025B6F1FF3FC8BF4FF4000586
:1028600041F8045CC1F800C0C1F800E00A600B60E8
:102870000C6051F8085C45F0020541F8085CC5079A
:102880004FF0100508BF4FF4801541F8045C850730
:102890004FF0200558BF4FF4001541F8045C450780
:1028A0004FF0400558BF4FF4800500074FF08000FF
:1028B00041F8045C58BF4FF4000041F8040CC1F823
:1028C00000C0C1F800E00A600B600C6070BD000041
:1028D00070B540F61401C4F2010104220A604FF001
:1028E000020C4FF0100E202240238024C1F800C0BB
:1028F000C1F800E00A600B600C6051F8085C46B259
:1029000045F0020541F8085CC5064FF0100558BFB8
:102910004FF4801541F8045C85064FF0200558BF40
:102920004FF4001541F8045C45064FF0400558BFD0
:102930004FF4800541F8045C8025B6F1FF3FC8BF25
:102940004FF4000541F8045CC1F800C0C1F800E094
:102950000A600B600C6051F8085C45F0020541F814
:10296000085CC5074FF0100508BF4FF4801541F80B
:10297000045C85074FF0200558BF4FF4001541F85F
:10298000045C45074FF0400558BF4FF48005000731
:102990004FF0800041F8045C58BF4FF4000041F84C
:1029A000040CC1F800C0C1F800E00A600B600C60C4
:1029B00070BD00002DE9F04F83B08246FA20CDE9CA
:1029C0000112FEF7EFF940F61407C4F201070420E4
:1029D0004FF0020B102520244FF04008802638606D
:1029E000C7F800B03D603C60C7F800803E6057F813
:1029F000080C4FF4801940F0020047F8080C4FF41F
:102A0000001047F8049C47F8040C4FF4800047F886
:102A1000040C4FF4000047F8040CC7F800B03D6008
:102A20003C60C7F800803E6057F8080C4FF4800205
:102A300040F002004FF4000147F8080C322047F83C
:102A4000049C47F8044C47F8042C47F8041CC7F8CA
:102A500000B03D603C60C7F800803E60FEF7A2F920
:102A60000198029940EA0A00084340F02000FFF76D
:102A70002FFF3220FEF796F94FF0040AC7F800A0A6
:102A8000C7F800B03D603C60C7F800803E6057F872
:102A9000080C4FF4000140F0020047F8080C4FF416
:102AA000001047F8049C47F8040C4FF4800047F8E6
:102AB000040C47F8041CC7F800B03D603C60C7F840
:102AC00000803E6057F8080C40F0020047F8080C00
:102AD000322047F8049C47F8044C47F8048C47F828
:102AE000041CC7F800B03D603C60C7F800803E6041
:102AF000FEF758F9C7F800A0C7F800B03D603C6089
:102B0000C7F800803E6057F8080C4FF4800A40F088
:102B1000020047F8080C4FF4001047F8049C47F8EF
:102B2000040C4FF4800047F8040C4FF4000047F801
:102B3000040CC7F800B03D603C60C7F800803E6000
:102B400057F8080C40F0020047F8080C322047F80C
:102B5000049C47F8044C47F8048C47F8046CC7F809
:102B600000B03D603C60C7F800803E60FEF71AF997
:102B700004203860C7F800B03D603C60C7F80080B2
:102B80003E6057F8080C4FF4001140F0020047F87F
:102B9000080C4FF4000047F8049C47F8041C47F861
:102BA00004AC47F8040CC7F800B03D603C60C7F8BF
:102BB00000803E6057F8080C4FF4001A40F0020005
:102BC00047F8080C322047F8049C47F8041C47F8E3
:102BD000048C47F8046CC7F800B03D603C60C7F84F
:102BE00000803E60FEF7DEF804203860C7F800B0D1
:102BF0003D603C60C7F800803E6057F8080C4FF419
:102C0000800140F002004FF4000247F8080C47F83A
:102C1000049C47F804AC47F8041C47F8042CC7F898
:102C200000B03D603C60C7F800803E6057F8080C7B
:102C300040F0020047F8080C47F8045C47F804AC81
:102C400047F8041C47F8042CC7F800B03D603C600E
:102C5000C7F8008064203E6003B0BDE8F04FFEF787
:102C6000A1B8000010B51446012803D0022806D1EF
:102C7000BF2000E07F200844C0B2FFF729FE207883
:102C8000002808BF10BD013CC0B2FFF7ABFDA07823
:102C900001340028F8D110BD96B0FEF7B1F90CACA4
:102CA00020462821FDF72EFB0120109010201190C6
:102CB0004FF4C01000250226159020460495CDE95A
:102CC0000255CDE90055CDE90A55CDE908550C96D8
:102CD000CDE91365FEF742FC18B1EFF3108072B630
:102CE000FEE70F20CDE900064FF48060CDE9030533
:102CF000684601210295FEF72BFB20B1EFF310800F
:102D000072B600BFFEE74FF4804002250A9008A883
:102D10000895FEF79DFA20B1EFF3108072B600BF60
:102D2000FEE7002641F21800CDE90E66CDE90C66FB
:102D3000C4F20200016840F6000441F02001016085
:102D40000168C4F2010401F02001009100990168BA
:102D5000002241F004010160016841F6F66701F0CC
:102D6000040100910099016841F0080101600068C8
:102D700041F6F66100F00800009000982046FEF74A
:102D800025F901200F950CADCDE90D062046294609
:102D90000C97FEF71BF84FF48070CDE90C06204627
:102DA00029460E96FEF712F840F2DC0004F51051A9
:102DB000C2F200004FF6FF73CDE90E66CDE90C6656
:102DC000CDE90066472280E84600C0E90336C0E945
:102DD0000566FEF7B1FD20B1EFF3108072B600BFBB
:102DE000FEE74FF480500C9040F2DC00C2F200008D
:102DF0000CA9FEF749FE20B1EFF3108072B600BFB8
:102E0000FEE740F2DC05C2F20005002669462846CE
:102E1000CDE90066FEF75CFD18B1EFF3108072B6E5
:102E2000FEE740F27C0004F5E051C2F20000012709
:102E30004FF460220E96CDE90C6607730675C261E9
:102E4000C0E9001686600761FDF7B0FC18B1EFF32A
:102E5000108072B6FEE705200E9040F27C0000263E
:102E6000C2F200000CA9CDE90C67FDF713FC20B1FC
:102E7000EFF3108072B600BFFEE740F2AC0004F53D
:102E80000051C2F200000E96CDE90C66067306757D
:102E90004FF46022C0E9001686600126C261066117
:102EA000FDF784FC18B1EFF3108072B6FEE709203D
:102EB000CDE90C0640F2AC000026C2F200000CA9DD
:102EC0000E96FDF7E7FB20B1EFF3108072B600BF5E
:102ED000FEE740F22410C2F200004FF080414FF6AE
:102EE000FF73CDE900661296CDE91066CDE90E6656
:102EF000CDE90C66152280E84600C0E903368661FC
:102F0000FFF778F818B1EFF3108072B6FEE740F2E1
:102F100024100026C2F200006946CDE90066FEF7E3
:102F2000D7FC18B1EFF3108072B6FEE76020CDE950
:102F30000C0640F22410C2F200000CA90C220E96DE
:102F400010960C26FEF756FF18B1EFF3108072B6FC
:102F5000FEE740F22410C2F20000FEF71FFF40F22D
:102F60006C1004F54051C2F2000000234FF4E1322E
:102F700080E80E00C0E90333C0E90563C361FFF7D1
:102F80003BFA18B1EFF3108072B6FEE740F2AC00E6
:102F9000C2F20000FDF708FB2846FEF74FFD204671
:102FA0004FF400710022FEF711F8002000210822E2
:102FB000FFF700FD43F6D036C0F6000601200121E0
:102FC0003246FFF74FFE012001213246FFF74AFE4D
:102FD0006420FDF7E7FE40F2B41B40F270090020C8
:102FE000C2F2000BC2F200090CAEE846CDE91200B5
:102FF000CDE91000CDE90E00CDE90C00CDE90600C9
:10300000CDE90400CDE90200CDE9000077E02868B1
:1030100040F27401C2F20001406A096840F278028D
:10302000C2F200021060401A00F084FA4CF29C4296
:1030300046F67203CBF22002C3F6A17300F08EFABB
:1030400000230022C3F6E07300F088FA00F02CFAA7
:10305000A9F800003220FDF7A5FEB9F800004FF4F2
:10306000006A0A2838BF4FF4805A20465146012290
:10307000FDF7ACFF6420FDF795FE20465146002287
:10308000FDF7A4FF00F08EF8B9F8002030463CA10F
:10309000FDF7B4F840F2C010C2F20000006800F082
:1030A000B3FC024640463AA1FDF7A8F840F26C177F
:1030B000C2F200073846314620224FF0FF33FFF7B7
:1030C0005BFA3846414620224FF0FF33FFF754FAAF
:1030D000012001214246FFF7C5FD012001214246A2
:1030E000FFF7C0FD022001213246FFF7BBFD0220A1
:1030F00001213246FFF7B6FD6420FDF753FE20465E
:103100004FF400710122FDF761FF28680021416240
:10311000416A0A29FCD320464FF400710022FDF7D2
:1031200055FFFDF759FFCBF8000020464FF48071A2
:10313000FDF746FF38B9DBF8000000F10A07FDF79C
:103140004BFF8742F1D8286840F27401406AC2F20E
:1031500000010860FDF740FFCBF8000020464FF467
:103160008071FDF72DFF00283FF451AFDBF8000020
:1031700000F13207FDF730FF8742EFD847E700BF85
:1031800044697374616E6365203A20256400000011
:1031900054656D7065726174757265203A2025649E
:1031A000200D0A00F0B581B040F27C05C2F20005A6
:1031B00040F600042846C4F20104FDF7C3FC28468B
:1031C0004FF47A71FDF7F8FB2846FDF7EBFA40F271
:1031D000B811C2F2000185B20880284600F093F9C8
:1031E00044F6AD724FF68B33C2F23962CBF6C77339
:1031F00006460F4600F0B2F947F2B02245F6ED035D
:10320000C9F26812C4F2760300F0A6F800F072F872
:1032100040F2BC11C2F2000144F6800243F61D03E5
:103220000860C7F6BF52C3F6BF733046394600F098
:1032300095F94EF2326248F2E433C2F2AE52CBF666
:10324000C27300F089F800F055F8064640F2C0104D
:10325000C2F200000660284600F06CF946F21362E4
:1032600049F29553CFF6DA62CBF6D57300F076F9D2
:103270004CF6CD4241F6CC43CCF6CC42C4F28503A9
:1032800000F06AF800F036F840F2C411C2F2000112
:1032900008600021C4F24821304600F067FB20B9E5
:1032A00020464FF48061012213E00021C4F2F011A6
:1032B000304600F05BFB40B920464FF4005101223C
:1032C000FDF784FE4FF4806107E020464FF48061F3
:1032D0000022FDF77BFE4FF4005120460022FDF74F
:1032E00075FE40F27C00C2F2000001B0BDE8F04083
:1032F000FDF79ABC21F0004201F00043A2F16052B8
:10330000B2F5801F28BFD2F17F6C0BD95FEA001C99
:1033100043EAC20242EB507018BF704728BF20F04A
:1033200001007047B2F5801FBCBF184670474FEAD6
:10333000410C1CF5001F02D2084600F02FBC70B5EE
:1033400000F0B6F900000089FFF7F6BF4FF000402B
:10335000A0F580007047000010B591EA030F48BF48
:1033600083F0004300F10082841A71EB030C05D254
:10337000121943EB0C03001B61EB0C014FEA1154D3
:10338000A4EB135CDFF81CE11EEA430F18BF9EEAB2
:10339000445F00F0748021EA045123EA0E0343F4F1
:1033A0008013DCF1200E32D322FA0CFE10EB0E005B
:1033B00023FA0CFE41EB0E01CCF1200E03FA0EFEB7
:1033C00010EB0E00CCF1200E51F10001B1F5801F81
:1033D00032D201EB045112FA0EF2BDE8104058BF90
:1033E0007047401C38BF5FEA420218BF7047002890
:1033F00014BF20F0010041F100014FEA410313F531
:10340000001F38BF7047A1F1C04100F09FB9012AE9
:1034100043EB0302ACF1200CDCF11F0E32BF4FF086
:10342000000E23FA0CF310EB030041EB0451B4EB54
:10343000115FD0D0A1EB045101F58011490801EBD7
:1034400004515FEA30000ED350F1000038BF12FA89
:103450000EFE08D1BDE81040C9E7401C38BF5FEA46
:103460004202CAD1C3E7BDE810404FEA410313F559
:10347000001F38BF7047A1F1C04100F067B99EEA54
:10348000445F08D011EA5E0FBDE8104004BF01F0B0
:10349000004100207047BDE8104070B500F008F909
:1034A00064FBBE3E0000E0FF4FEA41034FEA535386
:1034B000A3F58063D3F11E03C8BFD3F1210C0CDD4B
:1034C0004FF0004242EAC12242EA505232FA03FC73
:1034D0008CEAE17CACEBE1707047102BC4BF00209C
:1034E000704703F5787CBCF1FF3F04D06FF00042D9
:1034F00082EA2100704770B500F0DAF84992248022
:1035000000207047F2E710F0004248BF4042B0FA96
:1035100080F310FA03F10AD0C3F11D0303F58063B1
:1035200002EB03524FEA415002EBD12170474FF0BA
:1035300000007047B0FA80F310FA03F10AD0C3F12B
:103540001D0303F580634FEA03524FEA415002EB3B
:10355000D12170474FF000007047000070B5DFF8D0
:1035600048C11CEA111E1EBF1CEA13159EEA0C0F6F
:1035700095EA0C0F00F06F8081EA03044EEAD47ED6
:10358000AE4421EA4C1123EA4C1341F4801143F478
:103590008013AEF17F7EA1FB024CA0FB03653619C0
:1035A00055EB0C05A1FB034C4CF10003A0FB021CE6
:1035B00016EB0C06654153F10003094218BF46F0B3
:1035C000010613F4007F0BD14FEA03314FEA0530B7
:1035D00041EA155140EA165034036FF003020AE045
:1035E0004FEAC3214FEAC52041EA555140EA5650FF
:1035F000F4026FF0020202EB2E4201EB025585EA63
:10360000CE710AD05FEA440C18BF24F0004450F198
:10361000000041F1000120EAD47040F2FE7C6245D6
:1036200000D270BDA84214BF4FF080444FF0404418
:10363000002E08BF0024BEF1806FA8BFA1F1C041D9
:10364000BDE8704080F2828001F1C04101F000418C
:103650004FF0000070470CEA13159EEA0C0F18BFDC
:1036600095EA0C0F06D081EA030E4FF000000EF031
:10367000004170BD00F01CF88900013E00F007B861
:1036800000F009B84FEA430C5FEA5C5C08D081EABD
:10369000030100F05BB84FEA410C5FEA5C5CF6D1D5
:1036A00002494FF0000070470000FF070000F87F5C
:1036B0000EF1020E2EF0030E5EF8046B364205D4B6
:1036C000012A43EB030515F5001F12D8012841EB31
:1036D000010C1CF5001F0CD80ED14FEAD17C0CEB6D
:1036E0004C0C0CF1020C15F5001F08BF4CEBD37C01
:1036F00004E04FF0080C01E04FEAD37C0CEB4C05E2
:1037000026FA05F606F00706B6F1040C06D20EEB13
:10371000860CBDE870404CF0010C6047DFE80CF00F
:10372000090B02024FF00041A1F500214FF000000B
:1037300070BD19461046012851EB010418BFD4F59D
:10374000001484BF002001F0004170BD0808A0F5FE
:1037500000114FEA3101704710B591EA030F48BFDD
:1037600083F000433FF500AE841A71EB030C07D2DF
:103770008CF0004C121943EB0C03001B61EB0C01A5
:103780004FEA1154A4EB135CDFF8A4E11EEA430FE7
:1037900018BF9EEA445F00F0B48021EA045123EA96
:1037A0006E035242C3EB6E0338BF5B1EDCF1200E8A
:1037B00025D322FA0CFE10EB0E0043FA0CFE41EB6F
:1037C0000E01CCF1200E03FA0EFE10EB0E00CCF130
:1037D000200E51F1000129D401EB045112FA0EF22E
:1037E000BDE8104058BF7047401C1CBFB2F1004FED
:1037F000704700280CBF491C20F00100704712EBF5
:10380000020E43EB030218BF4FF0010E4EEA4202D4
:10381000ACF1200CDCF11E0E56D943FA0CFE10EB75
:103820000E00CCF11E0E51F1FF31D5D50EF1010E77
:1038300012FA0EFE404141EB010101EB445C5FEAEC
:103840005C5C10D901EB045110EBDE7038BFBEF1A7
:10385000004FBDE8104018BF704700280CBF491C3E
:1038600020F00100704734D24FEAD42C24F40064D5
:1038700011F500111BD0B1FA81F20B3AA41AA41E63
:10388000D2F12003914030FA03F31943904001EB49
:10389000CC7101EB0451002CBDE81040A8BF70476B
:1038A00001F1C04101F000414FF000007047B0FA53
:1038B00080F310FA03F102D1BDE810407047E41A1A
:1038C000173C4805C90AE2E701EB0451BDE8104086
:1038D000704749104FEA300001EB0451BDE8104039
:1038E00002E04FF0000170474A0008BF0042F8D0E4
:1038F000B2F5001F28BF704701F000414FF00000F3
:1039000070479EEA445F07D011EA5E0FBDE81040A1
:1039100004BF002100207047BDE8104070B5FFF7DC
:10392000C7FE00BF40DFF63E104683F000417047FF
:103930000000E0FF10B500F033F80CBF01200020BC
:1039400010BD10B500F02CF814BF0120002010BDF0
:1039500010B500F075F88CBF0120002010BD10B527
:1039600000F06EF82CBF0120002010BD10B500F053
:103970009BF894BF0120002010BD10B500F094F812
:1039800034BF0120002010BD401058BFC0F140409E
:10399000491058BFC1F140418142EFF300807047A8
:1039A00050EA010C00F113801CF5000F58BFBCF564
:1039B000000F01D48842704707D710F5000F58BF99
:1039C00011F5000F15D488427047894270471CF5E5
:1039D000000F04D5BCF5000FF7D5814270474FF0BA
:1039E000807C1CEB400F38BF1CEB410F01D28142A1
:1039F000704710B500F08CF8922449004FF0005049
:103A00004FF08051FFF7C0BF41000B0ED3F19E0273
:103A100008D950F400034FEA032323FA02F048BF09
:103A20004042704710B500F073F800BF49922480FF
:103A3000002070476FF0004282EA200070470000CB
:103A400050EA010C00F113801CF5000F58BFBCF5C3
:103A5000000F01D48842704707D710F5000F58BFF8
:103A600011F5000F15D488427047894270471CF544
:103A7000000F04D5BCF5000FF7D5814270474FF019
:103A8000807C1CEB400F38BF1CEB410F01D2814200
:103A9000704710B500F03CF8922449004FF0805078
:103AA0004FF00051FFF770BF50EA010C00F1138096
:103AB0001CF5000F58BFBCF5000F01D488427047B9
:103AC00007D710F5000F58BF11F5000F15D4884225
:103AD0007047894270471CF5000F04D5BCF5000FF4
:103AE000F7D5814270474FF0807C1CEB400F38BF08
:103AF0001CEB410F01D28142704710B500F008F86D
:103B0000922449004FF000504FF08051FFF73CBF26
:103B10000EF1020E2EF0030E5EF8044B244204D484
:103B20004FEA4102B2F17F4F11D84FEA4003B3F19F
:103B30007F4F0CD80ED14FEAD07C0CEB4C0C0CF123
:103B4000020CB2F17F4F08BF4CEBD17C04E04FF088
:103B5000080C01E04FEAD17C0CEB4C0324FA03F48F
:103B600004F00704B4F1040C06D20EEB840CBDE89B
:103B700010404CF0010C6047DFE80CF0070802022F
:103B80004FF00040A0F5800010BD0846420018BF6D
:103B9000D2F1807288BF00F0004010BDFF2141EAE1
:103BA000D050C00570470000000000000000010276
:103BB00003040607080900000000010203040102D3
:103BC00002030405060708090A0B0C0D0E0F10105E
:103BD0006C6364206163696C69730000003C0008D9
:103BE000000000201000000050010008103C0008F8
:103BF00010000020C0070000700100080000000055
:103C00000024F4000100000010000000000000008B
:04000005080000ED02
:00000001FF
